S00D000052656C6F6A2E737265631B
S11300000C945B000C9478000C9478000C947800A9
S11300100C9478000C9478000C9478000C9478007C
S11300200C9478000C9400030C9478000C947800E1
S11300300C9478000C9478000C9478000C9478005C
S11300400C9478000C9478000C9478000C9478004C
S11300500C9478000C9478000C9478000C9478003C
S11300600C9478000C947800E405080633065E06C8
S11300708906B406DF06001F000000001F00001FF1
S1130080101010101F00001F181818181F00001F50
S11300901C1C1C1C1F00001F1E1E1E1E1F00001FF8
S11300A01F1F1F1F1F0003070F1F0F070300181C2C
S11300B01E1F1E1C180011241FBECFEFD8E0DEBF88
S11300C0CDBF11E0A0E0B1E0E8E9FEE002C0059098
S11300D00D92A632B107D9F721E0A6E2B1E001C042
S11300E01D92A932B207E1F70E9411070C944A0746
S11300F00C94000065B1982F9074492F50E05595E9
S11301004795559547955595479555954795982FF6
S11301109078292F30E0022E232F000C221F330B5E
S1130120000C221F331F962F997F492B242B25B9AE
S113013068B1982F9071492F50E055954795559582
S1130140479555954795982F9072292F30E035950E
S113015027953595279535952795962F997F492B82
S1130160242B28B99BB192609BB99BB191609BB938
S113017025ED2A95F1F700009BB19E7F9BB99BB1B9
S11301809D7F9BB995ED9A95F1F7000065B120E14B
S1130190829FC0011124AC014074552755954795A1
S11301A05595479555954795559547959C012078C4
S11301B03327022E232F000C221F330B000C221F87
S11301C0331F362F397F432B242B25B948B19C018B
S11301D0207133273595279535952795359527959E
S11301E08072992795958795959587959595879587
S11301F0942F997F292B822B88B98BB182608BB97C
S11302008BB181608BB985ED8A95F1F700008BB1D4
S11302108E7F8BB98BB18D7F8BB995ED9A95F1F764
S11302200000089565B1982F9074492F50E05595BA
S11302304795559547955595479555954795982FC5
S11302409078292F30E0022E232F000C221F330B2D
S1130250000C221F331F962F997F492B242B25B97D
S113026068B1982F9071492F50E055954795559551
S1130270479555954795982F9072292F30E03595DD
S113028027953595279535952795962F997F492B51
S1130290242B28B99BB191609BB9EFE9FFE031971A
S11302A0F1F700C000009BB19E7F9BB9EFE9FFE02E
S11302B03197F1F700C0000065B1F0E18F9FC001F4
S11302C01124AC014074552755954795559547958C
S11302D055954795559547959C0120783327022ECF
S11302E0232F000C221F330B000C221F331F362F29
S11302F0397F432B242B25B948B19C012071332726
S113030035952795359527953595279580729927A5
S1130310959587959595879595958795942F997F2C
S1130320292B822B88B98BB181608BB98FE99FE02F
S11303300197F1F700C000008BB18E7F8BB9EFE914
S1130340FFE03197F1F700C00000089581E00E94BA
S113035012010895623031F0633031F0613029F4D4
S1130360805C03C08C5E01C08C5A80680E941201BC
S11303700895EF92FF920F931F93CF93DF937C0125
S1130380862F90E0880F991F880F991F880F991F57
S11303908064C0E0D0E00DC0F701EC0FFD1F1491A4
S11303A001E0080F0E941201812F0E947A00219619
S11303B0802FC830D10580F3DF91CF911F910F9129
S11303C0FF90EF900895CF93DF938FE59AEE019716
S11303D0F1F700C0000085B1897F85B988B1897FB4
S11303E088B91BB887B1866087B984B1866084B93F
S11303F084B1866084B987B1866087B98AB1836025
S11304008AB985B1897F85B988B1866088B98BB18D
S113041081608BB98FE99FE00197F1F700C000007C
S11304208BB18E7F8BB98FE99FE00197F1F700C004
S1130430000085B1897F85B988B1866088B98BB1A0
S113044081608BB98FE99FE00197F1F700C000004C
S11304508BB18E7F8BB98FE99FE00197F1F700C0D4
S1130460000085B1897F85B988B1897F846088B9A6
S11304708BB181608BB98FE99FE00197F1F700C0E0
S113048000008BB18E7F8BB98FE99FE00197F1F764
S113049000C0000088E20E9412018CE00E94120158
S11304A060E0C0E00AC0D1E0D60F8C2F90E08A58FB
S11304B09F4F0E94B901C85F6D2FC034A0F3DF9134
S11304C0CF9108958EE00E94120108958CE00E945D
S11304D012010895EF92FF920F931F93CF93DF932E
S11304E000D000D01F92CDB7DEB77B01FE0131965C
S11304F025E0DF011D922A95E9F724E030E00FC0E2
S11305006AE070E00E941C07E1E0F0E0EC0FFD1FE0
S1130510E20FF31F8083862F972F21503109009714
S113052079F7BFEFEB16FB0681F403C00F5F1F4F93
S113053002C000E010E0E1E0F0E0EC0FFD1FE00F8E
S1130540F11F2081222391F304C005E010E00E196D
S11305501F09992384F48DE20E947A000CC0E1E023
S1130560F0E0EC0FFD1FE00FF11F8081805D0E9421
S11305707A000F5F1F4F053011058CF30F900F9019
S11305800F900F900F90DF91CF911F910F91FF90DB
S1130590EF90089590910C0189E2989F812D112488
S11305A082958F7024E6829F90191124911108C0BE
S11305B080910C0190E060E971E00E941C070895AD
S11305C080910C01837008958FEF87B9E0E7F0E024
S11305D080818C7F8083E6EBF0E080818062808381
S11305E01092B20085E08093B1008091B6008A71C8
S11305F0E1F7E0E7F0E080818160808378940895FA
S11306001F920F920FB60F9211242F933F934F9383
S11306105F936F937F938F939F93AF93BF93EF9366
S1130620FF9380912701882381F0809126018823FC
S113063019F00E94620202C00E94660281E0909159
S11306402601911180E080932601E7E0F1E08081AA
S11306508F5F80838C3309F064C0108281818F5F47
S113066081838C3309F05DC0118282818F5F828324
S1130670883109F056C0128283818F5F8383803270
S113068031F484818F5F848381E083833FC08091D0
S11306900A018F31C1F480910B01843061F08091A3
S11306A00B01863041F080910B01893021F080915B
S11306B00B018B3059F5E7E0F1E084818F5F84838F
S11306C081E0838323C080910A018E3161F480919B
S11306D00B018230D9F4E7E0F1E084818F5F8483F9
S11306E081E0838313C080910A018D3179F4809174
S11306F00B01823059F40E94CA02882339F0E7E0E2
S1130700F1E084818F5F848381E0838380910B0196
S11307108D3039F4E7E0F1E081E0848385818F5FF7
S11307208583FF91EF91BF91AF919F918F917F91BD
S11307306F915F914F913F912F910F900FBE0F904A
S11307401F9018951092280186E0E7E0F1E0A1E0FF
S1130750B1E001900D928A95E1F70895CF93DF936C
S113076061E084E00E94AA01C7E0D1E08A8162E0EE
S113077070E090E00E946A028AE30E947A00898114
S113078062E070E090E00E946A028AE30E947A00CC
S1130790888162E070E090E00E946A0260E084E098
S11307A00E94AA018B8162E070E090E00E946A02DC
S11307B08FE20E947A008C8162E070E090E00E94F7
S11307C06A028FE20E947A008D8162E070E090E01C
S11307D00E946A02DF91CF910895CF93DF9360E086
S11307E084E00E94AA01C1E0D1E08B8162E070E064
S11307F090E00E946A028FE20E947A008C8162E09B
S113080070E090E00E946A028FE20E947A008D817B
S113081062E070E090E00E946A0261E084E00E947D
S1130820AA018A8162E070E090E00E946A028AE391
S11308300E947A00898162E070E090E00E946A027E
S11308408AE30E947A00888162E070E090E00E946E
S11308506A02DF91CF910895882381F086E0E1E078
S1130860F1E0A7E0B1E001900D928A95E1F7842FC1
S11308700E94AA0181E080932701089586E0E7E0C1
S1130880F1E0A1E0B1E001900D928A95E1F7842FA7
S11308900E94AA011092270108958D3471F130F459
S11308A0813471F0843409F446C008958D3609F416
S11308B0F8C0833709F412C1883609F02BC1D4C0BB
S11308C0662369F080910601833619F410920601BB
S11308D00895E1E0F1E085818F5F8583089580913B
S11308E00601811104C083E6809306010895E1E0C6
S11308F0F1E08581815085830895662371F08091AC
S113090005018C3021F481E0809305010895E1E034
S1130910F1E084818F5F84830895809105018130A3
S113092021F48CE0809305010895E1E0F1E08481F5
S1130930815084830895662309F44BC08091050196
S1130940843061F080910501863041F08091050189
S1130950893021F0809105018B3071F4809104017C
S11309608E3121F481E0809304010895E1E0F1E007
S113097083818F5F8383089580910B01823091F48A
S11309800E94CA02882371F0809104018C3121F401
S113099081E0809304010895E1E0F1E083818F5FB9
S11309A08383089580910B01823009F0B3C00E94C3
S11309B0CA028111AFC0809104018D3121F481E01C
S11309C0809304010895E1E0F1E083818F5F8383E4
S11309D0089580910501843061F08091050186308D
S11309E041F080910501893021F0809105018B301F
S11309F071F480910401813021F48EE1809304012B
S1130A000895E1E0F1E0838181508383089580912A
S1130A100B01823091F40E94CA02882371F0809104
S1130A200401813021F48CE1809304010895E1E014
S1130A30F1E0838181508383089580910B0182309A
S1130A4009F068C00E94CA02811164C08091040147
S1130A50813021F48DE1809304010895E1E0F1E017
S1130A608381815083830895662369F08091030113
S1130A70873119F4109203010895E1E0F1E08281D5
S1130A808F5F8283089580910301811104C087E1FF
S1130A90809303010895E1E0F1E082818150828333
S1130AA00895662369F0809102018B3319F4109242
S1130AB002010895E1E0F1E081818F5F818308956F
S1130AC080910201811104C08BE380930201089597
S1130AD0E1E0F1E08181815081830895662369F02A
S1130AE080910101833619F4109201010895E1E027
S1130AF0F1E080818F5F80830895809101018111ED
S1130B0004C083E6809301010895E1E0F1E080816F
S1130B10815080830895DC018FE78BB960E070E039
S1130B2036C08AB18F778AB984B1867E84B963303E
S1130B30710541F49AB1FB01EF5DFE4F8081892B71
S1130B408AB907C084B1FB01EF5DFE4F9081982BF9
S1130B5094B920E030E016C049B1F901E35EFE4FDC
S1130B609081942369F4660F771F660F771F635F84
S1130B707E4FFB01E20FF31F80818C9381E0089587
S1130B802F5F3F4F243031053CF36F5F7F4F64305C
S1130B9071053CF280E00895CF93DF931F92CDB7A7
S1130BA0DEB783E28983CE0101960E948B05E09132
S1130BB028018E2F90E08730910508F02EC1FC01AA
S1130BC0EC5CFF4F0C9430078981813419F0843434
S1130BD0A1F01BC01092000186E0E7E0F1E0A1E083
S1130BE0B1E001900D928A95E1F781E080932801AC
S1130BF04AE060E00E942C0410C1109228014AE0EF
S1130C0060E080E00E942C0408C10E94AE0305C18C
S1130C1089818234D1F018F4813431F0FEC08334F8
S1130C20D9F0843451F0F9C082E08093280147E080
S1130C3060E081E00E942C04F0C01092280147E09B
S1130C4060E080E00E942C04E8C061E081E40E943E
S1130C504D040E94ED03E1C060E081E40E944D0474
S1130C600E94ED03DAC089818234D1F018F4813412
S1130C7031F0D3C08334D9F0843451F0CEC083E052
S1130C808093280144E060E081E00E942C04C5C008
S1130C901092280144E060E080E00E942C04BDC072
S1130CA061E08DE40E944D040E94ED03B6C060E053
S1130CB08DE40E944D040E94ED03AFC0898182340B
S1130CC0D1F018F4813431F0A8C08334D9F08434DD
S1130CD051F0A3C084E08093280144E060E081E007
S1130CE00E942C049AC01092280144E060E080E045
S1130CF00E942C0492C061E084E40E944D040E948E
S1130D00ED038BC060E084E40E944D040E94ED0377
S1130D1084C089818234D1F018F4813431F07DC0EB
S1130D208334D9F0843451F078C085E0809328016D
S1130D3047E061E081E00E942C046FC0109228011A
S1130D4047E061E080E00E942C0467C061E088E62F
S1130D500E944D040E94ED0360C060E088E60E949A
S1130D604D040E94ED0359C089818234D1F018F4F6
S1130D70813431F052C08334D9F0843451F04DC001
S1130D8086E0809328014AE061E081E00E942C041F
S1130D9044C0109228014AE061E080E00E942C04E3
S1130DA03CC061E08DE60E944D040E94ED0335C015
S1130DB060E08DE60E944D040E94ED032EC08981FF
S1130DC08234F1F018F4813431F027C08334F9F01F
S1130DD0843471F022C0109228014AE061E081E07D
S1130DE00E942C044AE061E080E00E942C0415C0BB
S1130DF0109228014AE061E080E00E942C040DC0BA
S1130E0061E083E70E944D040E94ED0306C060E0A8
S1130E1083E70E944D040E94ED030F90DF91CF9170
S1130E2008950E94E4020E94E3010E94A6010E9428
S1130E30A2030E94CC05FDCF97FB072E16F4009465
S1130E4007D077FD09D00E94360707FC05D03EF491
S1130E50909581959F4F0895709561957F4F089562
S1130E60EE0FFF1F0590F491E02D0994AA1BBB1B04
S1130E7051E107C0AA1FBB1FA617B70710F0A61B96
S1130E80B70B881F991F5A95A9F780959095BC01B7
S10B0E90CD010895F894FFCF91
S1130E98010A1D0E1304150A1D0E130415313233ED
S1130EA8413435364237383943302A234408201030
S1090EB804100801800093
S9030000FC
