S00D000052656C6F6A2E737265631B
S11300000C9454000C9471000C9471000C947100C5
S11300100C9471000C9471000C9471000C94710098
S11300200C9471000C94C7020C9471000C94710030
S11300300C9471000C9471000C9471000C94710078
S11300400C9471000C9471000C9471000C94710068
S11300500C9471000C9471000C9471000C94710058
S11300600C9471000C947100001F000000001F002C
S1130070001F101010101F00001F181818181F0060
S1130080001F1C1C1C1C1F00001F1E1E1E1E1F0008
S1130090001F1F1F1F1F1F0003070F1F0F07030051
S11300A0181C1E1F1E1C180011241FBECFEFD8E001
S11300B0DEBFCDBF11E0A0E0B1E0E4E5F8E002C0AE
S11300C005900D92A033B107D9F721E0A0E3B1E088
S11300D001C01D92A533B207E1F70E94EB030C9413
S11300E028040C94000065B1982F9074492F50E0B7
S11300F055954795559547955595479555954795E4
S1130100982F9078292F30E0022E232F000C221FE5
S1130110330B000C221F331F962F997F492B242B5E
S113012025B968B1982F9071492F50E0559547959E
S11301305595479555954795982F9072292F30E0FE
S1130140359527953595279535952795962F997F3C
S1130150492B242B28B99BB192609BB99BB1916028
S11301609BB925ED2A95F1F700009BB19E7F9BB9C1
S11301709BB19D7F9BB995ED9A95F1F7000065B110
S113018020E1829FC0011124AC014074552755958C
S113019047955595479555954795559547959C0190
S11301A020783327022E232F000C221F330B000C40
S11301B0221F331F362F397F432B242B25B948B1F7
S11301C09C012071332735952795359527953595CD
S11301D027958072992795958795959587959595F7
S11301E08795942F997F292B822B88B98BB18260B4
S11301F08BB98BB181608BB985ED8A95F1F70000DD
S11302008BB18E7F8BB98BB18D7F8BB995ED9A9520
S1130210F1F70000089565B1982F9074492F50E0CC
S113022055954795559547955595479555954795B2
S1130230982F9078292F30E0022E232F000C221FB4
S1130240330B000C221F331F962F997F492B242B2D
S113025025B968B1982F9071492F50E0559547956D
S11302605595479555954795982F9072292F30E0CD
S1130270359527953595279535952795962F997F0B
S1130280492B242B28B99BB191609BB9EFE9FFE07E
S11302903197F1F700C000009BB19E7F9BB9EFE955
S11302A0FFE03197F1F700C0000065B1F0E18F9FE6
S11302B0C0011124AC0140745527559547955595B7
S11302C0479555954795559547959C012078332733
S11302D0022E232F000C221F330B000C221F331F6E
S11302E0362F397F432B242B25B948B19C0120712B
S11302F0332735952795359527953595279580721C
S11303009927959587959595879595958795942F94
S1130310997F292B822B88B98BB181608BB98FE9A6
S11303209FE00197F1F700C000008BB18E7F8BB97D
S1130330EFE9FFE03197F1F700C00000089581E094
S11303400E940B0108950F931F93CF93DF9300979F
S113035099F0D62F8C01C0E00DC0F801EC0FF11D0F
S113036080810E9473008FE891E00197F1F700C04B
S11303700000CF5FCD1788F3DF91CF911F910F91CC
S11303800895623031F0633031F0613029F4805CDB
S113039003C08C5E01C08C5A80680E940B010895D2
S11303A0EF92FF920F931F93CF93DF937C01862FDD
S11303B090E0880F991F880F991F880F991F8064F8
S11303C0C0E0D0E00DC0F701EC0FFD1F149101E077
S11303D0080F0E940B01812F0E9473002196802F29
S11303E0C830D10580F3DF91CF911F910F91FF9019
S11303F0EF900895CF93DF938FE59AEE0197F1F78D
S113040000C0000085B1897F85B988B1897F88B92A
S11304101BB887B1866087B984B1866084B984B11A
S1130420866084B987B1866087B98AB183608AB9E6
S113043085B1897F85B988B1866088B98BB18160BF
S11304408BB98FE99FE00197F1F700C000008BB1F1
S11304508E7F8BB98FE99FE00197F1F700C0000010
S113046085B1897F85B988B1866088B98BB181608F
S11304708BB98FE99FE00197F1F700C000008BB1C1
S11304808E7F8BB98FE99FE00197F1F700C00000E0
S113049085B1897F85B988B1897F846088B98BB13A
S11304A081608BB98FE99FE00197F1F700C00000EC
S11304B08BB18E7F8BB98FE99FE00197F1F700C074
S11304C0000088E20E940B018CE00E940B0160E0B6
S11304D0C0E00AC0D1E0D60F8C2F90E088599F4F1E
S11304E00E94D001C85F6D2FC034A0F3DF91CF917B
S11304F008958EE00E940B0108958CE00E940B0188
S113050008958091050164E60E94F403911108C0E6
S11305108091050190E060E971E00E940004089573
S113052080910501837008950E94FA010E949F0141
S113053060E080E00E94C10168E086E091E00E94F2
S1130540A30161E080E00E94C10168E08FE091E0D6
S11305500E94A30108958FEF87B9E0E7F0E080815E
S11305608C7F8083E6EBF0E0808180628083109250
S1130570B20085E08093B1008091B6008A71E1F702
S1130580E0E7F0E0808181608083789408951F9291
S11305900F920FB60F9211242F933F934F935F93B3
S11305A06F937F938F939F93AF93BF93EF93FF9337
S11305B080913201882381F080913101882319F0E0
S11305C00E94790202C00E947D0281E09091310173
S11305D0911180E080933101E0E0F1E080818F5F50
S11305E080838C3309F064C0108281818F5F8183A2
S11305F08C3309F05DC0118282818F5F82838831E0
S113060009F056C0128283818F5F8383803231F474
S113061084818F5F848381E083833FC08091030161
S11306208F31C1F480910401843061F08091040120
S1130630863041F080910401893021F080910401D9
S11306408B3059F5E0E0F1E084818F5F848381E0B1
S1130650838323C0809103018E3161F4809104016E
S11306608230D9F4E0E0F1E084818F5F848381E01B
S1130670838313C0809103018D3179F48091040147
S1130680823059F40E948102882339F0E0E0F1E0DD
S113069084818F5F848381E08383809104018D3022
S11306A039F4E0E0F1E081E0848385818F5F858324
S11306B0FF91EF91BF91AF919F918F917F916F9136
S11306C05F914F913F912F910F900FBE0F901F900C
S11306D01895109233010895DC018FE78BB960E01F
S11306E070E036C08AB18F778AB984B1867E84B9C6
S11306F06330710541F49AB1FB01E45DFE4F8081E2
S1130700892B8AB907C084B1FB01E45DFE4F908157
S1130710982B94B920E030E016C049B1F901E85DA6
S1130720FE4F9081942369F4660F771F660F771F3D
S1130730685E7E4FFB01E20FF31F80818C9381E0A2
S113074008952F5F3F4F243031053CF36F5F7F4F97
S1130750643071053CF280E008950F931F93CF93AA
S1130760DF931F92CDB7DEB78C01CE0101960E94B4
S11307706C03811104C09FEF909330010EC08981F6
S113078090913001891306C08F3F21F0F8018083D6
S113079081E003C08093300180E00F90DF91CF911E
S11307A01F910F910895CF93DF931F92CDB7DEB7BA
S11307B01982CE0101960E94AD038091330181110B
S11307C006C08981813419F481E0809333010F904C
S11307D0DF91CF9108950E94AB020E9494020E947F
S11307E069030E94D303FDCF991B79E004C0991FCC
S11307F0961708F0961B881F7A95C9F78095089577
S113080097FB072E16F4009407D077FD09D00E94B9
S1130810140407FC05D03EF4909581959F4F0895EC
S1130820709561957F4F0895AA1BBB1B51E107C0CA
S1130830AA1FBB1FA617B70710F0A61BB70B881F6C
S1130840991F5A95A9F780959095BC01CD010895FB
S1070850F894FFCF46
S11308540A1D0E13041533312F31322F3231003275
S1130864333A35393A353900313233413435364245
S113087437383943302A23440820100410080180EF
S9030000FC
