:100000000C945B000C9478000C9478000C947800AD
:100010000C9478000C9478000C9478000C94780080
:100020000C9478000C9417030C9478000C947800CE
:100030000C9478000C9478000C9478000C94780060
:100040000C9478000C9478000C9478000C94780050
:100050000C9478000C9478000C9478000C94780040
:100060000C9478000C947800F405160641066C0692
:100070009706C206ED06001F000000001F00001FCB
:10008000101010101F00001F181818181F00001F54
:100090001C1C1C1C1F00001F1E1E1E1E1F00001FFC
:1000A0001F1F1F1F1F0003070F1F0F070300181C30
:1000B0001E1F1E1C180011241FBECFEFD8E0DEBF8C
:1000C000CDBF11E0A0E0B1E0E0EBFEE002C00590A2
:1000D0000D92A632B107D9F721E0A6E2B1E001C046
:1000E0001D92A732B207E1F70E941F070C94560732
:1000F0000C94000065B1982F9074492F50E05595ED
:100100004795559547955595479555954795982FFA
:100110009078292F30E0022E232F000C221F330B62
:10012000000C221F331F962F997F492B242B25B9B2
:1001300068B1982F9071492F50E055954795559586
:10014000479555954795982F9072292F30E0359512
:1001500027953595279535952795962F997F492B86
:10016000242B28B99BB192609BB99BB191609BB93C
:1001700025ED2A95F1F700009BB19E7F9BB99BB1BD
:100180009D7F9BB995ED9A95F1F7000065B120E14F
:10019000829FC0011124AC014074552755954795A5
:1001A0005595479555954795559547959C012078C8
:1001B0003327022E232F000C221F330B000C221F8B
:1001C000331F362F397F432B242B25B948B19C018F
:1001D00020713327359527953595279535952795A2
:1001E000807299279595879595958795959587958B
:1001F000942F997F292B822B88B98BB182608BB980
:100200008BB181608BB985ED8A95F1F700008BB1D8
:100210008E7F8BB98BB18D7F8BB995ED9A95F1F768
:100220000000089565B1982F9074492F50E05595BE
:100230004795559547955595479555954795982FC9
:100240009078292F30E0022E232F000C221F330B31
:10025000000C221F331F962F997F492B242B25B981
:1002600068B1982F9071492F50E055954795559555
:10027000479555954795982F9072292F30E03595E1
:1002800027953595279535952795962F997F492B55
:10029000242B28B99BB191609BB9EFE9FFE031971E
:1002A000F1F700C000009BB19E7F9BB9EFE9FFE032
:1002B0003197F1F700C0000065B1F0E18F9FC001F8
:1002C0001124AC0140745527559547955595479590
:1002D00055954795559547959C0120783327022ED3
:1002E000232F000C221F330B000C221F331F362F2D
:1002F000397F432B242B25B948B19C01207133272A
:1003000035952795359527953595279580729927A9
:10031000959587959595879595958795942F997F30
:10032000292B822B88B98BB181608BB98FE99FE033
:100330000197F1F700C000008BB18E7F8BB9EFE918
:10034000FFE03197F1F700C00000089581E00E94BE
:1003500012010895623031F0633031F0613029F4D8
:10036000805C03C08C5E01C08C5A80680E941201C0
:100370000895EF92FF920F931F93CF93DF937C0129
:10038000862F90E0880F991F880F991F880F991F5B
:100390008064C0E0D0E00DC0F701EC0FFD1F1491A8
:1003A00001E0080F0E941201812F0E947A0021961D
:1003B000802FC830D10580F3DF91CF911F910F912D
:1003C000FF90EF900895CF93DF938FE59AEE01971A
:1003D000F1F700C0000085B1897F85B988B1897FB8
:1003E00088B91BB887B1866087B984B1866084B943
:1003F00084B1866084B987B1866087B98AB1836029
:100400008AB985B1897F85B988B1866088B98BB191
:1004100081608BB98FE99FE00197F1F700C0000080
:100420008BB18E7F8BB98FE99FE00197F1F700C008
:10043000000085B1897F85B988B1866088B98BB1A4
:1004400081608BB98FE99FE00197F1F700C0000050
:100450008BB18E7F8BB98FE99FE00197F1F700C0D8
:10046000000085B1897F85B988B1897F846088B9AA
:100470008BB181608BB98FE99FE00197F1F700C0E4
:1004800000008BB18E7F8BB98FE99FE00197F1F768
:1004900000C0000088E20E9412018CE00E9412015C
:1004A00060E0C0E00AC0D1E0D60F8C2F90E08A58FF
:1004B0009F4F0E94B901C85F6D2FC034A0F3DF9138
:1004C000CF910895EF92FF920F931F93CF93DF93F5
:1004D00000D000D01F92CDB7DEB77B01FE01319670
:1004E00025E0DF011D922A95E9F724E030E00FC0F6
:1004F0006AE070E00E942807E1E0F0E0EC0FFD1FE9
:10050000E20FF31F8083862F972F21503109009728
:1005100079F7BFEFEB16FB0681F403C00F5F1F4FA7
:1005200002C000E010E0E1E0F0E0EC0FFD1FE00FA2
:10053000F11F2081222391F304C005E010E00E1981
:100540001F09992384F48DE20E947A000CC0E1E037
:10055000F0E0EC0FFD1FE00FF11F8081805D0E9435
:100560007A000F5F1F4F053011058CF30F900F902D
:100570000F900F900F90DF91CF911F910F91FF90EF
:10058000EF90089590910C0189E2989F812D11249C
:1005900082958F7024E6829F90191124911108C0D2
:1005A00080910C0190E060E971E00E9428070895B5
:1005B00080910C01837008959091060189E2989FC3
:1005C000812D112482958F7024E6829F9019112429
:1005D000911108C08091060190E060E971E00E94ED
:1005E0002807089580910601837008950E94E30111
:1005F0000E94A60108958FEF87B9E0E7F0E08081BF
:100600008C7F8083E6EBF0E08081806280831092B3
:10061000B20085E08093B1008091B6008A71E1F765
:10062000E0E7F0E0808181608083789408951F92F4
:100630000F920FB60F9211242F933F934F935F9316
:100640006F937F938F939F93AF93BF93EF93FF939A
:10065000E7E0F1E080818F5F80838C3309F067C031
:1006600081E080930001108281818F5F81838C33D0
:1006700009F05DC0118282818F5F8283883109F029
:1006800056C0128283818F5F8383803231F48481EC
:100690008F5F848381E083833FC080910A018F3123
:1006A000C1F480910B01843061F080910B018630A0
:1006B00041F080910B01893021F080910B018B304A
:1006C00059F5E7E0F1E084818F5F848381E08383E3
:1006D00023C080910A018E3161F480910B01823038
:1006E000D9F4E7E0F1E084818F5F848381E0838344
:1006F00013C080910A018D3179F480910B01823011
:1007000059F40E94C202882339F0E7E0F1E08481C5
:100710008F5F848381E0838380910B018D3039F476
:10072000E7E0F1E081E0848385818F5F8583FF913D
:10073000EF91BF91AF919F918F917F916F915F9159
:100740004F913F912F910F900FBE0F901F901895D2
:100750001092260186E0E7E0F1E0A1E0B1E001902F
:100760000D928A95E1F70895CF93DF9360E084E0DE
:100770000E94AA01C7E0D1E08B8162E070E090E0C6
:100780000E9462028FE20E947A008C8162E070E037
:1007900090E00E9462028FE20E947A008D8162E006
:1007A00070E090E00E94620261E084E00E94AA0191
:1007B0008A8162E070E090E00E9462028AE30E9417
:1007C0007A00898162E070E090E00E9462028AE330
:1007D0000E947A00888162E070E090E00E946202EC
:1007E000DF91CF910895CF93DF9360E084E00E9482
:1007F000AA01C1E0D1E08B8162E070E090E00E944C
:1008000062028FE20E947A008C8162E070E090E0E8
:100810000E9462028FE20E947A008D8162E070E0A5
:1008200090E00E94620261E084E00E94AA018A8155
:1008300062E070E090E00E9462028AE30E947A0027
:10084000898162E070E090E00E9462028AE30E9487
:100850007A00888162E070E090E00E946202DF919D
:10086000CF910895882381F086E0E1E0F1E0A7E0F0
:10087000B1E001900D928A95E1F7842F0E94AA01C0
:1008800081E080930001089586E0E7E0F1E0A1E0D7
:10089000B1E001900D928A95E1F7842F0E94AA01A0
:1008A0001092000108958D3471F130F4813471F0AB
:1008B000843409F446C008958E3609F4F8C08337AD
:1008C00009F412C1883609F02BC1D4C0662369F03F
:1008D00080910601833619F4109206010895E1E033
:1008E000F1E085818F5F85830895809106018111F4
:1008F00004C083E6809306010895E1E0F1E085817C
:10090000815085830895662371F0809105018C30B4
:1009100021F481E0809305010895E1E0F1E0848114
:100920008F5F8483089580910501813021F48CE0EC
:10093000809305010895E1E0F1E084818150848392
:100940000895662309F44BC080910501843061F05D
:1009500080910501863041F080910501893021F0B8
:10096000809105018B3071F4809104018E3121F466
:1009700081E0809304010895E1E0F1E083818F5FDD
:100980008383089580910B01823091F40E94DC02F0
:10099000882371F0809104018C3121F481E08093EF
:1009A00004010895E1E0F1E083818F5F838308957E
:1009B00080910B01823009F0B3C00E94DC028111EA
:1009C000AFC0809104018D3121F481E08093040156
:1009D0000895E1E0F1E083818F5F83830895809142
:1009E0000501843061F080910501863041F08091ED
:1009F0000501893021F0809105018B3071F48091DF
:100A00000401813021F48EE1809304010895E1E036
:100A1000F1E0838181508383089580910B018230BE
:100A200091F40E94C202882371F080910401813008
:100A300021F48CE1809304010895E1E0F1E08381E9
:100A400081508383089580910B01823009F068C042
:100A50000E94C202811164C080910401813021F49E
:100A60008DE1809304010895E1E0F1E083818150FC
:100A700083830895662369F080910301873119F417
:100A8000109203010895E1E0F1E082818F5F82839B
:100A9000089580910301811104C087E180930301CF
:100AA0000895E1E0F1E08281815082830895662318
:100AB00069F0809102018B3319F4109202010895BC
:100AC000E1E0F1E081818F5F8183089580910201EF
:100AD000811104C08BE3809302010895E1E0F1E00D
:100AE0008181815081830895662369F0809101019D
:100AF000833619F4109201010895E1E0F1E080815C
:100B00008F5F8083089580910101811104C083E685
:100B1000809301010895E1E0F1E0808181508083BC
:100B20000895DC018FE78BB960E070E03FC08AB1C7
:100B30008F778AB984B1867E84B96330710541F4B8
:100B40009AB1FB01EF5DFE4F8081892B8AB907C006
:100B500084B1FB01EF5DFE4F9081982B94B920E0AA
:100B600030E01FC049B1F901E35EFE4F908194234C
:100B7000B1F4660F771F660F771F635F7E4FFB012F
:100B8000E20FF31F80818C932FEF89EF90E02150CB
:100B900080409040E1F700C0000081E008952F5FA1
:100BA0003F4F24303105F4F26F5F7F4F64307105A1
:100BB0000CF4BDCF80E00895CF93DF931F92CDB7A3
:100BC000DEB783E28983CE0101960E949105E09110
:100BD00026018E2F90E08730910508F02CC1FC0192
:100BE000EC5CFF4F0C943C078981813419F084340C
:100BF00091F019C086E0E7E0F1E0A1E0B1E00190FA
:100C00000D928A95E1F781E0809326014AE060E049
:100C10000E94320410C1109226014AE060E080E098
:100C20000E94320408C10E94B40305C18981823444
:100C3000D1F018F4813431F0FEC08334D9F084341B
:100C400051F0F9C082E08093260147E060E081E046
:100C50000E943204F0C01092260147E060E080E07C
:100C60000E943204E8C061E081E40E9453040E94C3
:100C7000F303E1C060E081E40E9453040E94F303A7
:100C8000DAC089818234D1F018F4813431F0D3C0D4
:100C90008334D9F0843451F0CEC083E080932601B0
:100CA00044E060E081E00E943204C5C01092260159
:100CB00044E060E080E00E943204BDC061E08DE469
:100CC0000E9453040E94F303B6C060E08DE40E94CA
:100CD00053040E94F303AFC089818234D1F018F429
:100CE000813431F0A8C08334D9F0843451F0A3C0EA
:100CF00084E08093260144E060E081E00E943204B9
:100D00009AC01092260144E060E080E00E94320424
:100D100092C061E084E40E9453040E94F3038BC0FC
:100D200060E084E40E9453040E94F30384C089813C
:100D30008234D1F018F4813431F07DC08334D9F09D
:100D4000843451F078C085E08093260147E061E06B
:100D500081E00E9432046FC01092260147E061E0FA
:100D600080E00E94320467C061E088E60E9453047C
:100D70000E94F30360C060E088E60E9453040E9472
:100D8000F30359C089818234D1F018F4813431F0F1
:100D900052C08334D9F0843451F04DC086E0809342
:100DA00026014AE061E081E00E94320444C01092D2
:100DB00026014AE061E080E00E9432043CC061E02C
:100DC0008EE60E9453040E94F30335C060E08EE675
:100DD0000E9453040E94F3032EC089818234F1F0F3
:100DE00018F4813431F027C08334F9F0843471F081
:100DF00022C0109226014AE061E081E00E943204A4
:100E00004AE061E080E00E94320415C010922601A1
:100E10004AE061E080E00E9432040DC061E083E7B7
:100E20000E9453040E94F30306C060E083E70E941F
:100E300053040E94F3030F90DF91CF9108950E9415
:100E4000F6020E94FB020E94A8030E94DC05FDCF6F
:100E500097FB072E16F4009407D077FD09D00E9467
:100E6000420707FC05D03EF4909581959F4F089569
:100E7000709561957F4F0895EE0FFF1F0590F491D7
:100E8000E02D0994AA1BBB1B51E107C0AA1FBB1F81
:100E9000A617B70710F0A61BB70B881F991F5A9506
:100EA000A9F780959095BC01CD010895F894FFCFE6
:100EB000010A1D0E1304150A1D0E130415313233D9
:100EC000413435364237383943302A23440820101C
:060ED0000410080180007F
:00000001FF
