S00D000052656C6F6A2E737265631B
S11300000C945B000C9478000C9478000C947800A9
S11300100C9478000C9478000C9478000C9478007C
S11300200C9478000C942C030C9478000C947800B5
S11300300C9478000C9478000C9478000C9478005C
S11300400C9478000C9478000C9478000C9478004C
S11300500C9478000C9478000C9478000C9478003C
S11300600C9478000C947800A406C506F8062B07B7
S11300705E079107C407001F000000001F00001F57
S1130080101010101F00001F181818181F00001F50
S11300901C1C1C1C1F00001F1E1E1E1E1F00001FF8
S11300A01F1F1F1F1F0003070F1F0F070300181C2C
S11300B01E1F1E1C180011241FBECFEFD8E0DEBF88
S11300C0CDBF11E0A0E0B1E0E6E8F0E102C00590A8
S11300D00D92A832B107D9F721E0A8E2B1E001C03E
S11300E01D92AE32B207E1F70E94FE070C9441085C
S11300F00C94000065B1982F9074492F50E05595E9
S11301004795559547955595479555954795982FF6
S11301109078292F30E0022E232F000C221F330B5E
S1130120000C221F331F962F997F492B242B25B9AE
S113013068B1982F9071492F50E055954795559582
S1130140479555954795982F9072292F30E035950E
S113015027953595279535952795962F997F492B82
S1130160242B28B99BB192609BB99BB191609BB938
S113017025ED2A95F1F700009BB19E7F9BB99BB1B9
S11301809D7F9BB995ED9A95F1F7000065B120E14B
S1130190829FC0011124AC014074552755954795A1
S11301A05595479555954795559547959C012078C4
S11301B03327022E232F000C221F330B000C221F87
S11301C0331F362F397F432B242B25B948B19C018B
S11301D0207133273595279535952795359527959E
S11301E08072992795958795959587959595879587
S11301F0942F997F292B822B88B98BB182608BB97C
S11302008BB181608BB985ED8A95F1F700008BB1D4
S11302108E7F8BB98BB18D7F8BB995ED9A95F1F764
S11302200000089565B1982F9074492F50E05595BA
S11302304795559547955595479555954795982FC5
S11302409078292F30E0022E232F000C221F330B2D
S1130250000C221F331F962F997F492B242B25B97D
S113026068B1982F9071492F50E055954795559551
S1130270479555954795982F9072292F30E03595DD
S113028027953595279535952795962F997F492B51
S1130290242B28B99BB191609BB9EFE9FFE031971A
S11302A0F1F700C000009BB19E7F9BB9EFE9FFE02E
S11302B03197F1F700C0000065B1F0E18F9FC001F4
S11302C01124AC014074552755954795559547958C
S11302D055954795559547959C0120783327022ECF
S11302E0232F000C221F330B000C221F331F362F29
S11302F0397F432B242B25B948B19C012071332726
S113030035952795359527953595279580729927A5
S1130310959587959595879595958795942F997F2C
S1130320292B822B88B98BB181608BB98FE99FE02F
S11303300197F1F700C000008BB18E7F8BB9EFE914
S1130340FFE03197F1F700C00000089581E00E94BA
S1130350120108950F931F93CF93DF93009789F0B1
S1130360D62F8C01C0E00BC0F801EC0FF11D808189
S11303700E947A008AE68A95F1F700C0CF5FCD1714
S113038098F3DF91CF911F910F910895623031F06E
S1130390633031F0613029F4805C03C08C5E01C0AD
S11303A08C5A80680E9412010895EF92FF920F9375
S11303B01F93CF93DF937C01862F90E0880F991FC2
S11303C0880F991F880F991F8064C0E0D0E00DC08A
S11303D0F701EC0FFD1F149101E0080F0E941201B8
S11303E0812F0E947A002196802FC830D10580F396
S11303F0DF91CF911F910F91FF90EF900895CF93CC
S1130400DF938FE59AEE0197F1F700C0000085B104
S1130410897F85B988B1897F88B91BB887B186601F
S113042087B984B1866084B984B1866084B987B1A0
S1130430866087B98AB183608AB985B1897F85B9B5
S113044088B1866088B98BB181608BB98FE99FE0F0
S11304500197F1F700C000008BB18E7F8BB98FE953
S11304609FE00197F1F700C0000085B1897F85B94D
S113047088B1866088B98BB181608BB98FE99FE0C0
S11304800197F1F700C000008BB18E7F8BB98FE923
S11304909FE00197F1F700C0000085B1897F85B91D
S11304A088B1897F846088B98BB181608BB98FE909
S11304B09FE00197F1F700C000008BB18E7F8BB9EC
S11304C08FE99FE00197F1F700C0000088E20E94E5
S11304D012018CE00E94120160E0C0E00AC0D1E089
S11304E0D60F8C2F90E08A589F4F0E94D501C85F89
S11304F06D2FC034A0F3DF91CF910895EF92FF9256
S11305000F931F93CF93DF9300D000D01F92CDB7EA
S1130510DEB77B01FE01319625E0DF011D922A95AD
S1130520E9F724E030E00FC06AE070E00E941308AD
S1130530E1E0F0E0EC0FFD1FE20FF31F8083862F54
S1130540972F21503109009779F7BFEFEB16FB067F
S113055081F403C00F5F1F4F02C000E010E0E1E030
S1130560F0E0EC0FFD1FE00FF11F2081222391F337
S113057004C005E010E00E191F09992384F48DE2EC
S11305800E947A000CC0E1E0F0E0EC0FFD1FE00FE8
S1130590F11F8081805D0E947A000F5F1F4F05303C
S11305A011058CF30F900F900F900F900F90DF9127
S11305B0CF911F910F91FF90EF90089580910B01BF
S11305C064E60E940708911108C080910B0190E035
S11305D060E971E00E941308089580910B01837013
S11305E008959091050189E2989F812D11248295A7
S11305F08F7024E6829F90191124911108C0809174
S1130600050190E060E971E00E941308089580916B
S11306100501837008950E94FF010E94A6010895B8
S11306208FEF87B9E0E7F0E080818C7F8083E6EB91
S1130630F0E08081806280831092B20085E0809334
S1130640B1008091B6008A71E1F7E0E7F0E08081C3
S113065081608083789408951F920F920FB60F9251
S113066011242F933F934F935F936F937F938F93B3
S11306709F93AF93BF93EF93FF9381E080932C01FB
S113068090912B01911180E080932B01E6E0F1E041
S113069080818F5F80838C3309F064C010828181F4
S11306A08F5F81838C3309F05DC0118282818F5FFB
S11306B08283883109F056C0128283818F5F8383DD
S11306C0803231F484818F5F848381E083833FC0EF
S11306D0809109018F31C1F480910A01843061F065
S11306E080910A01863041F080910A01893021F01D
S11306F080910A018B3059F5E6E0F1E084818F5F47
S1130700848381E0838323C0809109018E3161F465
S113071080910A018230D9F4E6E0F1E084818F5FB0
S1130720848381E0838313C0809109018D3179F43E
S113073080910A01823059F40E94DE02882339F044
S1130740E6E0F1E084818F5F848381E0838380919C
S11307500A018D3039F4E6E0F1E081E0848385819B
S11307608F5F8583FF91EF91BF91AF919F918F919F
S11307707F916F915F914F913F912F910F900FBE99
S11307800F901F90189510922D0186E0E6E0F1E09D
S1130790A0E0B1E001900D928A95E1F7089580916F
S11307A02A01882309F456C080912B01882309F477
S11307B046C0809128018730D1F08A3021F08430FE
S11307C009F042C028C080912901811108C080919C
S11307D0000162E070E090E00E947E0235C08091EA
S11307E0050162E070E090E00E947E022DC08091DD
S11307F02901811108C08091010162E070E090E05C
S11308000E947E0221C08091040162E070E090E0C9
S11308100E947E0219C080912901811108C0809133
S1130820020162E070E090E00E947E020DC08091BF
S1130830030162E070E090E00E947E0205C062E085
S11308408CE091E00E94AA01E8E2F1E061818081FC
S11308500E94C6010895CF93DF9380912C018823D1
S1130860E1F110922C0161E084E00E94C601C6E02F
S1130870D1E08B8162E070E090E00E947E028FE222
S11308800E947A008C8162E070E090E00E947E0217
S11308908FE20E947A008D8162E070E090E00E9415
S11308A07E0260E084E00E94C6018A8162E070E01A
S11308B090E00E947E028AE30E947A00898162E0CD
S11308C070E090E00E947E028AE30E947A008881B0
S11308D062E070E090E00E947E02DF91CF91089583
S11308E0CF93DF9380912C018823E1F110922C01A6
S11308F061E084E00E94C601C0E0D1E08B8162E047
S113090070E090E00E947E028FE20E947A008C8167
S113091062E070E090E00E947E028FE20E947A0022
S11309208D8162E070E090E00E947E0260E084E0ED
S11309300E94C6018A8162E070E090E00E947E021B
S11309408AE30E947A00898162E070E090E00E946C
S11309507E028AE30E947A00888162E070E090E07F
S11309600E947E02DF91CF910895CF93DF93C62F2B
S1130970D42F8823B9F086E0E0E0F1E0A6E0B1E00E
S113098001900D928A95E1F70E9470046C2F8D2FCF
S11309900E94C601E8E2F1E0D083C18381E0809344
S11309A02A0112C086E0E6E0F1E0A0E0B1E00190A7
S11309B00D928A95E1F7842F0E94C601E8E2F1E0E6
S11309C0D083C18310922A01DF91CF9108958D3491
S11309D071F130F4813471F0843409F446C008951F
S11309E08E3609F412C1833709F42CC1883609F014
S11309F045C1EEC0662369F080910501833619F480
S1130A00109205010895E0E0F1E085818F5F858310
S1130A10089580910501811104C083E68093050146
S1130A200895E0E0F1E0858181508583089566238F
S1130A3071F0809104018C3021F481E080930401F1
S1130A400895E0E0F1E084818F5F848308958091CC
S1130A500401813021F48CE0809304010895E0E0E6
S1130A60F1E08481815084830895662309F458C099
S1130A7080910401843061F080910401863041F05A
S1130A8080910401893021F0809104018B3071F44C
S1130A90809103018E3121F481E080930301089554
S1130AA0E0E0F1E083818F5F8383089580910A0100
S1130AB0823091F40E94F102882371F08091030145
S1130AC08C3121F481E0809303010895E0E0F1E0AA
S1130AD083818F5F8383089580910A01823091F42A
S1130AE00E94F10281110EC0809103018D3121F425
S1130AF081E0809303010895E0E0F1E083818F5F5A
S1130B0083830895809103018F3121F481E08093E0
S1130B1003010895E0E0F1E083818F5F838308950A
S1130B2080910401843061F080910401863041F0A9
S1130B3080910401893021F0809104018B3071F49B
S1130B4080910301813021F48EE1809303010895A3
S1130B50E0E0F1E0838181508383089580910A016C
S1130B60823091F40E94F102882371F08091030194
S1130B70813021F48CE1809303010895E0E0F1E0F9
S1130B80838181508383089580910A01823091F496
S1130B900E94F10281110EC080910301813021F481
S1130BA08DE1809303010895E0E0F1E083818150B9
S1130BB08383089580910301813021F48FE1809330
S1130BC003010895E0E0F1E0838181508383089577
S1130BD0662369F080910201873119F410920201B1
S1130BE00895E0E0F1E082818F5F8283089580912F
S1130BF00201811104C087E1809302010895E0E0BD
S1130C00F1E08281815082830895662369F08091A6
S1130C1001018B3319F4109201010895E0E0F1E031
S1130C2081818F5F8183089580910101811104C0C6
S1130C308BE3809301010895E0E0F1E0818181502C
S1130C4081830895662369F0809100018B3319F440
S1130C50109200010895E0E0F1E080818F5F8083CD
S1130C60089580910001811104C08BE380930001F9
S1130C700895E0E0F1E08081815080830895DC01F3
S1130C808CE38BB960E070E03FC08AB18F778AB99A
S1130C9084B1867E84B96330710541F49AB1FB0155
S1130CA0ED5DFE4F8081892B8AB907C084B1FB01B9
S1130CB0ED5DFE4F9081982B94B920E030E01FC089
S1130CC049B1F901E15EFE4F90819423B1F4660FBE
S1130CD0771F660F771F615F7E4FFB01E20FF31FE3
S1130CE080818C932FEF89EF90E0215080409040D9
S1130CF0E1F700C0000081E008952F5F3F4F2430EA
S1130D003105F4F26F5F7F4F643071050CF4BDCF91
S1130D1080E00895CF93DF931F92CDB7DEB783E2CF
S1130D208983CE0101960E943F060E94CF03E09181
S1130D302D018E2F90E08730910508F05BC1FC01F6
S1130D40EC5CFF4F0C9427088981813419F08434BA
S1130D5091F018C086E0E6E0F1E0A0E0B1E0019097
S1130D600D928A95E1F781E080932D014AE061E0DC
S1130D700E94B5043FC110922D014AE061E080E079
S1130D800E94B5040E942B0435C189818234D1F0BC
S1130D9018F4813431F02EC18334F9F0843451F0E5
S1130DA029C182E080932D0147E061E081E00E9447
S1130DB0B50420C110922D0147E061E080E00E945B
S1130DC0B50418C161E081E40E94E7040E94700444
S1130DD061E08AE00E94C6010DC160E081E40E94E6
S1130DE0E7040E94700461E08AE00E94C60102C127
S1130DF089818234D1F018F4813431F0FBC083341A
S1130E00F9F0843451F0F6C083E080932D0144E07E
S1130E1061E081E00E94B504EDC010922D0144E030
S1130E2061E080E00E94B504E5C061E08DE40E94C9
S1130E30E7040E94700461E087E00E94C601DAC002
S1130E4060E08DE40E94E7040E94700461E087E0A2
S1130E500E94C601CFC089818234D1F018F4813454
S1130E6031F0C8C08334F9F0843451F0C3C084E055
S1130E7080932D0144E060E081E00E94B504BAC093
S1130E8010922D0144E060E080E00E94B504B2C0FD
S1130E9061E084E40E94E7040E94700461E084E05D
S1130EA00E94C601A7C060E084E40E94E7040E9497
S1130EB0700461E084E00E94C6019CC08981823490
S1130EC0D1F018F4813431F095C08334F9F08434CE
S1130ED051F090C085E080932D0147E060E081E00F
S1130EE00E94B50487C010922D0147E060E080E0C5
S1130EF00E94B5047FC061E088E60E94E7040E9476
S1130F00700460E084E00E94C60174C060E088E67A
S1130F100E94E7040E94700460E084E00E94C6011D
S1130F2069C089818234D1F018F4813431F062C00F
S1130F308334F9F0843451F05DC086E080932D0150
S1130F404AE060E081E00E94B50454C010922D0193
S1130F504AE060E080E00E94B5044CC061E08EE6A7
S1130F600E94E7040E94700460E087E00E94C601CA
S1130F7041C060E08EE60E94E7040E94700460E0D5
S1130F8087E00E94C60136C089818234F1F018F4EA
S1130F90813431F02FC0833419F1843471F02AC0C4
S1130FA010922D014AE060E081E00E94B5044AE01D
S1130FB060E080E00E94B5041DC010922D014AE05B
S1130FC060E080E00E94B50415C061E083E70E9400
S1130FD0E7040E94700460E08AE00E94C6010AC02F
S1130FE060E083E70E94E7040E94700460E08AE006
S1130FF00E94C6010F90DF91CF9108950E940B03C8
S11310000E9410030E94C3030E948A06FDCF991B0D
S113101079E004C0991F961708F0961B881F7A95EB
S1131020C9F78095089597FB072E16F4009407D00E
S113103077FD09D00E942D0807FC05D03EF4909559
S113104081959F4F0895709561957F4F0895EE0F98
S1131050FF1F0590F491E02D0994AA1BBB1B51E1DD
S113106007C0AA1FBB1FA617B70710F0A61BB70B14
S1131070881F991F5A95A9F780959095BC01CD01B9
S10910800895F894FFCF6F
S11310860A1D0E1304150A1D0E1304152020003123
S11310963233413435364237383943302A2344080B
S10B10A6201004100801800071
S9030000FC
