:100000000C9454000C9471000C9471000C947100C9
:100010000C9471000C9471000C9471000C9471009C
:100020000C9471000C9471000C9471000C9471008C
:100030000C9471000C9471000C9471000C9471007C
:100040000C9471000C9471000C9471000C9471006C
:100050000C9471000C9471000C9471000C9471005C
:100060000C9471000C947100001F000000001F0030
:10007000001F101010101F00001F181818181F0064
:10008000001F1C1C1C1C1F00001F1E1E1E1E1F000C
:10009000001F1F1F1F1F1F0003070F1F0F07030055
:1000A000181C1E1F1E1C180011241FBECFEFD8E005
:1000B000DEBFCDBF11E0A0E0B1E0E0EEF5E002C0B0
:1000C00005900D92A032B107D9F721E0A0E2B1E08E
:1000D00001C01D92A132B207E1F70E94DC020C942C
:1000E000EE020C94000065B1982F9074492F50E0F7
:1000F00055954795559547955595479555954795E8
:10010000982F9078292F30E0022E232F000C221FE9
:10011000330B000C221F331F962F997F492B242B62
:1001200025B968B1982F9071492F50E055954795A2
:100130005595479555954795982F9072292F30E002
:10014000359527953595279535952795962F997F40
:10015000492B242B28B99BB192609BB99BB191602C
:100160009BB92DE02A95F1F700009BB19E7F9BB9CA
:100170009BB19D7F9BB99DE09A95F1F7000065B119
:1001800020E1829FC0011124AC0140745527559590
:1001900047955595479555954795559547959C0194
:1001A00020783327022E232F000C221F330B000C44
:1001B000221F331F362F397F432B242B25B948B1FB
:1001C0009C012071332735952795359527953595D1
:1001D00027958072992795958795959587959595FB
:1001E0008795942F997F292B822B88B98BB18260B8
:1001F0008BB98BB181608BB98DE08A95F1F70000E6
:100200008BB18E7F8BB98BB18D7F8BB99DE09A9529
:10021000F1F70000089565B1982F9074492F50E0D0
:1002200055954795559547955595479555954795B6
:10023000982F9078292F30E0022E232F000C221FB8
:10024000330B000C221F331F962F997F492B242B31
:1002500025B968B1982F9071492F50E05595479571
:100260005595479555954795982F9072292F30E0D1
:10027000359527953595279535952795962F997F0F
:10028000492B242B28B99BB191609BB9E9EFF0E091
:100290003197F1F700C000009BB19E7F9BB9E9EF59
:1002A000F0E03197F1F700C0000065B1F0E18F9FF9
:1002B000C0011124AC0140745527559547955595BB
:1002C000479555954795559547959C012078332737
:1002D000022E232F000C221F330B000C221F331F72
:1002E000362F397F432B242B25B948B19C0120712F
:1002F0003327359527953595279535952795807220
:100300009927959587959595879595958795942F98
:10031000997F292B822B88B98BB181608BB989EFAA
:1003200090E00197F1F700C000008BB18E7F8BB990
:10033000E9EFF0E03197F1F700C00000089581E0A7
:100340000E940B0108950F931F93CF93DF930097A3
:1003500069F0D62F8C01C0E007C0F801EC0FF11D49
:1003600080810E947300CF5FCD17B8F3DF91CF91EA
:100370001F910F910895EF92FF920F931F93CF93C8
:10038000DF937C01862F90E0880F991F880F991FBB
:10039000880F991F8064C0E0D0E00DC0F701EC0F1A
:1003A000FD1F149101E0080F0E940B01812F0E9494
:1003B00073002196802FC830D10580F3DF91CF9153
:1003C0001F910F91FF90EF900895CF93DF9385EAEF
:1003D0009EE00197F1F700C0000085B1897F85B9E3
:1003E00088B1897F88B91BB887B1866087B984B125
:1003F000866084B984B1866084B987B1866087B924
:100400008AB183608AB985B1897F85B988B18660F0
:1004100088B98BB181608BB989EF90E00197F1F7D2
:1004200000C000008BB18E7F8BB989EF90E00197FF
:10043000F1F700C0000085B1897F85B988B1866079
:1004400088B98BB181608BB989EF90E00197F1F7A2
:1004500000C000008BB18E7F8BB989EF90E00197CF
:10046000F1F700C0000085B1897F85B988B1897F27
:10047000846088B98BB181608BB989EF90E0019776
:10048000F1F700C000008BB18E7F8BB989EF90E04F
:100490000197F1F700C0000088E20E940B018CE098
:1004A0000E940B0160E0C0E00AC0D1E0D60F8C2FA3
:1004B00090E088599F4F0E94BB01C85F6D2FC034E8
:1004C000A0F3DF91CF9108950E94E5010E949F0162
:1004D00066E080E091E00E94A3010895DC018FE7CF
:1004E0008BB960E070E03CC08AB18F778AB984B183
:1004F000867E84B96330710541F49AB1FB01E55EF3
:10050000FE4F8081892B8AB907C084B1FB01E55E6B
:10051000FE4F9081982B94B920E030E01CC049B187
:10052000F901E95EFE4F9081942399F4660F771FDD
:10053000660F771F695F7E4FFB01E20FF31F80811B
:100540008C938FE39CE90197F1F700C0000081E0F4
:1005500008952F5F3F4F243031050CF36F5F7F4FBD
:10056000643071050CF4C0CF80E008950F931F93A1
:10057000CF93DF931F92CDB7DEB78C01CE010196EA
:100580000E946E02811104C09FEF909320010EC063
:10059000898190912001891306C08F3F21F0F801D5
:1005A000808381E003C08093200180E00F90DF9181
:1005B000CF911F910F910895CF93DF931F92CDB7E5
:1005C000DEB719820E946402CE0101960E94B60233
:1005D0008823D1F389810E947300F6CFF894FFCF6E
:1005E0005465636C613A00313233413435364237F9
:1005F000383943302A2344082010041008018000B1
:00000001FF
